:060000000A128A110C280F
:10000800FE00030EF1000A08F2000A128A112428E1
:100018000A128A110F28F801F901FA018312031351
:10002800B701B801B901BA01BB01BC01BD01BE01EC
:10003800BF01C001C101C20183010A128A11F5285A
:100048008B1D27282828DA280B1C2B282C28DA288F
:100058000B1083120313061E322833283C28861EF1
:10006800362837283C284530F0007008BD00D328D2
:10007800061A3F2840284428861E43284428A728D3
:10008800061E47284828602878087904031D4D284B
:100098004E2860284130F0007008BD00061F552822
:1000A80056287228861A59285A28722887185D28CF
:1000B8005E28722807157228071D6328642872288D
:1000C800861E672868287228071407110130F8006F
:1000D8000030F9005230F0007008BD00861E752807
:1000E80076288E2878087904031D7B287C288E289A
:1000F8004230F0007008BD00061F83288428D328EA
:10010800061A87288828D32807198B288C28D328EB
:100118008714D328871C91289228D328061E95284F
:100128009628D32878087904031D9B289C28D3286F
:10013800071487100130F8000030F9005230F00041
:100148007008BD00D328061AAA28AB28BB28861A2F
:10015800AE28AF28BB28061BB228B328BB28071136
:10016800871007105030F0007008BD00D328061A19
:10017800BE28BF28D328861AC228C328D328061F1A
:10018800C628C728D32878037904031DCC28CD288E
:10019800D3280710F801F901B701B801B628061BE2
:1001A800D628D728DA280711871007108B1EDD28D4
:1001B800DE28EE280B1DE128E228EE28831203131F
:1001C8000108FF3E81000B110130BB070318BC0A70
:1001D8000030BC0772088A00710E8300FE0E7E0E86
:1001E80009008B130A128A111A260A128A118B1710
:1001F8000A128A11C0260A128A110A128A11FC25CB
:100208000A128A110A128A1137260A128A112A2911
:100218000A128A11C0250A128A1145290A128A115E
:10022800A2250A128A1145290A128A1184250A125E
:100238008A1145290A128A1166250A128A11452946
:100248000A128A11FC250A128A11452983120313FE
:100258003D08B500B6013608003A03193429452986
:100268003508413A03190C29033A03191229073AA8
:1002780003191829153A03192429023A03191E29C2
:100288004529831203133B033C04031D4C294D29C4
:100298002A29061B5029512957290A128A11DE25B5
:1002A8000A128A11A929061A5A295B295F29861E6A
:1002B8005E295F29A32937083804031D64296529A5
:1002C8009D290130B7070318B80A0030B807013074
:1002D800B9070318BA0A0030BA070A128A11512658
:1002E8000A128A110530F3000030F4008312031358
:1002F8003A08F6003908F5000A128A11E9230A12A9
:100308008A1173087404031D8A298B29A929831269
:10031800031339083A04031992299329A9293A0899
:10032800B3003908B2000A128A1192240A128A11FB
:10033800A9290A128A1148250A128A11A9290A121A
:100348008A112A250A128A11A92983120313BB01CB
:0A035800BC012A290A128A110C28A0
:10040000FF1B0A2A83137F1883170008840A031925
:10041000FF0A080002308A000408840A82070034B8
:10042000503441344334203445344D342034413445
:10043000203420342034203420342034203400343C
:10044000503441344334203445344D342034423424
:10045000203420342034203420342034203400341C
:100460004E3445344E34483455344D3420345034B1
:1004700041344334203420342034203420340034B8
:10048000523445344D344F3456344534523420348C
:100490005034413443342034203420342034003468
:1004A000523445344D344F3456344534523420346C
:1004B0003134203450344134433420342034003437
:1004C0005434453452344D3449344E344534203458
:1004D00045344E34563449344F34203420340034BB
:1004E0004C34493447345534453420344F34203467
:1004F0004D344F3454344F3452342034203400348B
:100500005034413443342034503441345334533420
:100510004F345534203445344D3420344334003482
:100520004534533450344534523441344E344434D9
:100530004F34203450344134433420340034513467
:100540004E34543420345034413443343A3420341B
:100550003034003483120313AB002408A9002308AD
:10056000A8002608F4002508F3002908F60028084A
:10057000F5000A128A1165230A128A11740883127F
:100580000313A9007308A8000130A7002708AB07D0
:1005900028082904031DCD2ACE2AB12A2B0884005D
:1005A000831380010130AB022608F4002508F30014
:1005B0002408F6002308F5000A128A11E9230A121A
:1005C0008A11730883120313A7002708AA002608BC
:1005D000F4002508F3002408F6002308F5000A12A9
:1005E0008A1165230A128A11740883120313A40066
:1005F0007308A3000A302A02031CFF2A002B042BD5
:100600000730A7002708AA073030A7002708AA0745
:100610002A08A7002B0884002708831380000130D4
:10062000AB0223082404031D162B172BD42A0130F8
:10063000A7002708AB0708000A128A119C260A1295
:100640008A1103300A128A11BE240A128A110A1270
:100650008A11B6260A128A1103300A128A11BE24A0
:100660000A128A110A128A11B6260A128A11033056
:100670000A128A11BE240A128A110A128A11B62697
:100680000A128A1102300A128A11BE240A128A1131
:100690000A128A11B6260A128A1128300A128A1101
:1006A0008C260A128A1106300A128A118C260A1226
:1006B0008A110E300A128A118C260A128A110A1225
:1006C0008A11AA260A128A11080083120313A101B3
:1006D000A2017308740403196E2B6F2BA62BA001C3
:1006E000A00A7D2B01300310F30DF40DFF3E031D16
:1006F000732B0130F7007708A007F41F802B812BA4
:10070000722B01300310A10DA20DFF3E031D822BA1
:1007100074087602031D8E2B73087502031C912B3F
:10072000922B992B7308F5027408031CF603F6024A
:10073000211401300310F40CF30CFF3E031D9A2B1F
:100740000130A002031DA52BA62B812B2208F4004B
:100750002108F30008000A128A119C260A128A1145
:1007600030300A128A118C260A128A110A128A1152
:10077000B6260A128A1130300A128A118C260A1201
:100780008A110A128A11B6260A128A1130300A1208
:100790008A118C260A128A110A128A11B6260A12A6
:1007A0008A1138300A128A118C260A128A110630F0
:1007B0000A128A118C260A128A110E300A128A1124
:1007C0008C260A128A110A128A11AA260A128A1182
:1007D0000800730874040319EE2BEF2B202C8312EE
:1007E0000313A001A00AFF2B01300310F30DF40D39
:1007F000FF3E031DF52B0130F7007708A007F41F1B
:10080000022C032CF42B74087602031D092C7308A8
:100810007502031C0C2C0D2C132C7308F5027408A4
:10082000031CF603F60201300310F40CF30CFF3E38
:10083000031D142C0130A002031D1F2C202C032C9F
:100840007608F4007508F300080083120313A4006F
:10085000492C2108803E0A128A118C260A128A111C
:100860005F2C2108C03E0A128A118C260A128A11B6
:100870005F2C2108903E0A128A118C260A128A11D6
:100880005F2C2108D03E0A128A118C260A128A1186
:100890005F2C2408A200A3012308003A0319512C5D
:1008A0005F2C2208013A0319292C033A0319312C31
:1008B000013A0319392C073A0319412C5F2C08001F
:1008C000831203130814A9018B2C29082107A50002
:1008D0002208A4000318A40AA91F6F2CA4038312E2
:1008E00003132408A6002608FF00250884000A1226
:1008F0008A1100220A128A11A7002708A8002808D6
:100900000A128A117C260A128A11013083120313FB
:10091000A4002408A90723082902031C902C912C69
:10092000652C0800831203133308AD003208AC00B5
:100930000A30AE000030AF003E300A128A11E524C2
:100940000A128A110A3083120313B4003408A1007A
:1009500002300A128A1125240A128A113E308312AB
:100960000313A1000030A2000330B4003408A30038
:100970000A128A1160240A128A110800F300731CFB
:10098000C22CC32CC72C831203130816CA2C831243
:1009900003130812F31CCD2CCE2CD02C8816D12C8E
:1009A0008812731DD42CD52CD72C0817D82C0813DB
:1009B000F31DDB2CDC2CDE2C8817DF2C88130A12AD
:1009C0008A116B260A128A11080083120313B100E0
:1009D000AD1FEB2CEC2CFC2C2D30B000310884002A
:1009E0003008831380000130B0003008B107AC0933
:1009F000AD09AC0A0319AD0A2D08A4002C08A30008
:100A00002F08A6002E08A50031080A128A11AA2272
:100A10000A128A110800F6007608F4000430031068
:100A2000F40CFF3E031D0F2D7408F5007508F70048
:100A300077080A128A11BE240A128A1176080F3921
:100A4000F4007408F70077080A128A11BE240A120B
:100A50008A110800203083120313AA002A08BD005F
:100A6000A101A10A01300A128A1125240A128A1151
:100A7000213083120313A1008030A2000F30AA009E
:100A80002A08A3000A128A1160240A128A11080097
:100A9000203083120313AA002A08BD00A101A10A75
:100AA00001300A128A1125240A128A115130831248
:100AB0000313A1008030A2000F30AA002A08A3006F
:100AC0000A128A1160240A128A1108002030831247
:100AD0000313AA002A08BD00A101A10A01300A12CD
:100AE0008A1125240A128A11313083120313A100BE
:100AF0008030A2000F30AA002A08A3000A128A112F
:100B000060240A128A110800203083120313AA00FD
:100B10002A08BD00A101A10A01300A128A11252468
:100B20000A128A11413083120313A1008030A200FF
:100B30000F30AA002A08A3000A128A1160240A12A0
:100B40008A110800203083120313AA002A08BD006E
:100B5000A101A10A01300A128A1125240A128A1160
:100B6000113083120313A1008030A2000F30AA00BD
:100B70002A08A3000A128A1160240A128A110800A6
:100B8000203083120313AA002A08BD00A101A10A84
:100B900001300A128A1125240A128A1101308312A7
:100BA0000313A1008030A2000F30AA002A08A3007E
:100BB0000A128A1160240A128A1108002030831256
:100BC0000313AA002A08BD00A101A10A01300A12DC
:100BD0008A1125240A128A11613083120313A1009D
:100BE0008030A2000F30AA002A08A3000A128A113E
:100BF00060240A128A110800203083120313AA000D
:100C00002A08BD00A101A10A01300A128A11252477
:100C10000A128A11813083120313A1008030A200CE
:100C20000F30AA002A08A3000A128A1160240A12AF
:100C30008A11080083120313850186018701880148
:100C400089011030831603138500703086008701F8
:100C500088018901A830810038308B00FF30831271
:100C6000031381000730831603139C0008008312CE
:100C70000313A101A10A02300A128A1125240A12C3
:100C80008A11903083120313A1008030A2000A3031
:100C9000AA002A08A3000A128A1160240A128A11E3
:100CA000080083120313A101A10A01300A128A115C
:100CB00025240A128A11713083120313A100803097
:100CC000A2000F30AA002A08A3000A128A11602489
:100CD0000A128A1108008312031388140A128A1157
:100CE000D2260A128A118312031388100A128A115B
:100CF000D2260A128A11080083120313A0000814D6
:100D000020080A128A110B250A128A110A128A1166
:100D1000C6260A128A11080083120313A0000810C5
:100D200020080A128A110B250A128A110A128A1146
:100D3000C6260A128A1108000230F5000430F400B9
:100D4000BA30F300F30BA22EF40BA22EF50BA22E59
:100D50000000080001300A128A118C260A128A113A
:100D60000A128A11B6260A128A1108000D30F40000
:100D7000FB30F300F30BBA2EF40BBA2EBF2E080093
:100D80000A128A111C230A128A1108004230F30049
:100D9000F30BC82E000008000A128A116B260A12F3
:0C0DA0008A110800D32ED42E0000080099
:02400E00FA3F77
:00000001FF
